:020000040800F2
:100000006007002001010008F50D0008F10D00084F
:10001000F30D00087D0100088915000800000000AC
:10002000000000000000000000000000190E0008A1
:100030007F01000800000000170E0008D111000821
:100040001B0100081B0100081B0100081B01000820
:100050001B0100081B0100081B0100081B01000810
:100060001B0100081B0100081B0100081B01000800
:100070001B0100081B0100081B0100081B010008F0
:100080001B0100081B0100081B0100081B010008E0
:100090001B0100081B0100081B0100081B010008D0
:1000A0001B0100081B0100081B0100081B010008C0
:1000B0001B0100081B0100081B0100081B010008B0
:1000C0001B0100081B0100081B0100081B010008A0
:1000D0001B0100081B0100087D1500081B0100081A
:1000E0001B0100081B0100081B010008DFF80CD0F1
:1000F00000F032F800480047B516000860070020FD
:100100000648804706480047FEE7FEE7FEE7FEE7B1
:10011000FEE7FEE7FEE7FEE7FEE7FEE7391200082E
:10012000ED000008D2B201E000F8012B491EFBD21D
:1001300070470022F6E710B513460A4604461946F2
:10014000FFF7F0FF204610BD421C10F8011B0029EC
:10015000FBD1801A70470000064C074D06E0E068AE
:1001600040F0010394E8070098471034AC42F6D3FE
:10017000FFF7C0FFA4180008C4180008FEE7704786
:1001800010B590F821100024022903D004218163C6
:1001900001243DE001680A6822F00E020A6001684D
:1001A0000A6822F001020A601A4A0168914201D1EC
:1001B000012121E0174A1432914201D110211BE0A4
:1001C000144A2832914201D1891515E0114A3C3276
:1001D000914201D189140FE00E4A5032914202D16E
:1001E0004FF4803108E00B4A6432914202D14FF45F
:1001F000801101E04FF08071064A083A51600121F8
:1002000080F82110002180F82010416B01B188474F
:10021000204610BD0800024070B5044600F0F6F814
:100220000546601C02D004480078044400F0EEF853
:10023000401BA042FAD370BD0C0000202DE9F84FFE
:10024000DFF890A100220AF1040B144601274FF0B9
:100250000F090BF1040E00BF0B6807FA04F52B40E1
:10026000AB4274D1DFF870C14E68A6EB0C0866454E
:100270002BD00DDC032E34D005DC36B3012E19D083
:10028000022E2FD11BE0112E16D0122E2AD119E0EA
:10029000B8F5881F19D006DCB8F5803F15D0B8F541
:1002A000801F1FD111E0B8F5001F0ED0B8F5041F54
:1002B00018D10AE0CA6815E0CA68121D12E0CA68BF
:1002C00008320FE0CA680C320CE08A682AB1012AB1
:1002D0004FF0080203D0456104E0042202E005610A
:1002E00000E00022FF2B01D8064601E000F10406E1
:1002F0004FEA840501D9A5F12005D6F800C009FA16
:1003000005F82CEA080C02FA05F54CEA050CC6F8CB
:1003100000C04D68ED0057D5304DAE6946F001067E
:10032000AE61AD6924F0030605F0010500952C4D82
:1003300006EB050CDCF80850A6074FEA167809FA18
:1003400008F6B543274EB04202D1002610E03BE04C
:10035000254EB04201D101260AE0244EB04201D11F
:10036000022605E0224EB04201D1032600E0042619
:1003700006FA08F62E43CCF808604D68DAF80060FB
:10038000ED03554601D51E4300E09E432E604D68A7
:10039000DBF80060AD035D4601D51E4300E09E43DF
:1003A0002E604D68DEF80060ED02754601D51E43F3
:1003B00000E09E432E604D68AD020E4D2E6801D5C3
:1003C0001E4300E09E432E60641C102CFFF444AFDB
:1003D000BDE8F88F00040140000011100010024039
:1003E0000000014000080140000C014000100140E5
:1003F000001401400C040140C2684A40C2607047CA
:100400000AB1016170470904FBE7000001488068F8
:10041000704700000C0000200248816802781144F7
:10042000816070470C000020074810B5016841F05A
:1004300010010160032000F09BF8002000F006F896
:1004400000F024F8002010BD0020024070B50D4DD2
:1004500004464FF47A712878B1FBF0F00A49096834
:10046000B1FBF0F000F02BFB48B9102C07D20022B2
:100470002146501E00F05CF800206C6070BD012029
:1004800070BD00000C00002018000020204808B5B6
:10049000816941F001018161816901F001010091EF
:1004A000C16941F08051C161C06900F08050009085
:1004B000032000F05DF8002211466FF00B0000F001
:1004C00037F8002211466FF00A0000F031F80022E0
:1004D00011466FF0090000F02BF800221146501F62
:1004E00000F026F800221146101F00F021F800222B
:1004F0001146901E00F01CF800221146501E00F01C
:1005000017F80448416821F0E061416008BD00002F
:10051000001002400000014000F01F020121914044
:100520004009800000F1E020C0F800117047000091
:10053000F0B40E4B1B680C46C3F30223C3F107054E
:10054000042D00D90425191D072901D2002300E03C
:10055000DB1E012606FA05F1491E214099409E4006
:10056000761E16403143F0BC00F045BC0CED00E0B7
:10057000064900F0070208684FF6FF03184040EAFA
:100580000220034A10430860704700000CED00E0B1
:100590000000FA052DE9F047DFF83C8105460E46DC
:1005A000D8F8000000F00700B0420CD2D8F80010D4
:1005B00021F007013143C8F80010D8F8000000F01E
:1005C0000700B04263D12878444C800705D56068A5
:1005D000A96820F0F000084360602878C00745D083
:1005E0006868012816D02168022816D089070029DA
:1005F0004DDA616821F0030101436160FFF706FFF6
:100600006968074641F2883001290FD002298146E6
:1006100019D027E021688903E9E78901E7E700BFEE
:10062000FFF7F4FEC11B494501D918E08146606817
:10063000C0F381000128F3D118E000BFFFF7E6FE08
:10064000C11B49450BD86068C0F381000228F5D171
:100650000CE000BFFFF7DAFEC11B494502D90320B9
:10066000BDE8F087606810F00C0FF3D1D8F80010E7
:10067000404601F00701B1420BD9016821F00701A2
:1006800031430160006800F00700B04201D0012052
:10069000E6E72878400705D56068E96820F4E0605F
:1006A000084360602878000706D56068296920F44F
:1006B000605040EAC100606000F03CF86168084AA0
:1006C000C1F30311515CC840064908600020FFF7E0
:1006D000BDFE0020C4E700000020024000100240E0
:1006E00089180008180000200148006870470000C1
:1006F000180000200448054900684968044AC1F30D
:100700000221515CC84070471800002000100240D0
:10071000991800080448054900684968044AC1F36B
:10072000C221515CC84070471800002000100240F0
:100730009918000812A185B00FC98DE80F0014A008
:10074000144A006804905168134801F00C03042B0C
:1007500010D0082B0ED1C1F38343C9031DF8030049
:100760000AD5516804AAC1F34041515C0A4A50437A
:10077000B0FBF1F005B0704708494843FAE70000C4
:1007800002030405060708090A0B0C0D0E0F1010D2
:10079000010200000010024000127A0000093D0032
:1007A0002DE9F84F04460078B94DC00748D0686875
:1007B000C0F38100012807D06868C0F381000228D7
:1007C00009D16868C00306D52868800338D56068F9
:1007D00000286FD034E06068B0F5803F0BD010B1D6
:1007E000B0F5A02F11D0286820F480302860286848
:1007F00020F4802002E0286840F48030286060689F
:1008000088B1FFF703FE064609E0286840F480201F
:100810002860F0E7FFF7FAFD801B642875D8286888
:100820008003F7D50CE0FFF7F1FD064605E000BFB9
:10083000FFF7ECFD801B6428F0D828688003F7D40C
:100840002078944E80074FF001094FF000083BD507
:10085000686810F00C0F07D06868C0F381000228A8
:1008600009D16868C00306D42868800714D52069B8
:1008700001281FD110E02069B0B1C6F80090FFF741
:10088000C5FD074605E000BFFFF7C0FDC01B0228FD
:10089000C4D828688007F7D52868616920F0F80077
:1008A00040EAC10028600FE0C6F80080FFF7AEFD07
:1008B000074606E0E9E000BFFFF7A8FDC01B0228DD
:1008C00023D828688007F7D4207800072CD57248F1
:1008D000A169D9B1C0F80090FFF798FD074604E080
:1008E000FFF794FDC01B02280FD8686A8007F7D570
:1008F0006A484FF4FA510068B0FBF1F0009000BF75
:100900000098411E0091FAD20EE080E0C0F800800D
:10091000FFF77CFD074604E0FFF778FDC01B0228C7
:1009200075D8686A8007F7D42078400760D5E869F1
:100930000027C00008D4E86940F08050E861E86909
:10094000012700F08050009055480168C90513D474
:100950000168834641F480710160FFF757FD8246CC
:1009600006E000BFFFF752FDA0EB0A0064284ED856
:10097000DBF80000C005F5D5E06801280AD008B111
:10098000052813D0286A20F001002862286A20F088
:10099000040002E0286A40F001002862E06841F2A9
:1009A000883B98B1FFF732FD82460BE0286A40F0A1
:1009B00004002862EEE700BFFFF728FDA0EB0A0164
:1009C00059455AD8286A8007F6D50CE0FFF71EFD76
:1009D000824605E0FFF71AFDA0EB0A0159454CD805
:1009E000286A8007F6D41FB1E86920F08050E861DA
:1009F000E06988B36968C1F38101022945D0022802
:100A0000C6F8608004D0FFF701FD044638E034E00A
:100A1000FFF7FCFC074604E0FFF7F8FCC01B0228C8
:100A20002BD828688001F7D4206AB0F5803F05D123
:100A30006868A16820F4003008436860D4E90801C0
:100A40000843696821F4741108436860C6F860902F
:100A5000FFF7DCFC044606E015E000BFFFF7D6FC1C
:100A6000001B022809D828688001F7D50BE000BFD9
:100A7000FFF7CCFC001B022802D90320BDE8F88F49
:100A800028688001F4D40020F8E70120F6E7000090
:100A90000010024000004242800442421800002040
:100AA000007000404FF0E0210428086903D020F0D6
:100AB00004000861704740F00400FAE7704710B581
:100AC000401EB0F1807F01D3012010BD4FF0E02423
:100AD00060610F21601700F08EF90020A0610720EF
:100AE0002061002010BD10B5FFF7E8FF10BD704772
:100AF00070B5026804461068D168536910F00F0F92
:100B000050D003F0010501F4907635435DD0C20763
:100B100005D0CA0503D5E26B42F00102E263420749
:100B200005D5DA0703D0E26B42F00202E2638207E6
:100B300005D5DA0703D0E26B42F00402E263020754
:100B400005D5DA0703D0E26B42F00802E263E26BFC
:100B5000002A33D0800604D5880602D5204600F04E
:100B6000A5FB20684069E16BC0F38010090700D441
:100B700028B3204600F08CFB2068416949061AD54D
:100B8000416921F040014161606BA0B11B494163A3
:100B9000606BFFF7F5FA002810D0606B416BBDE881
:100BA00070400847830610D58B060ED52046BDE859
:100BB000704000F07BBB2046FFF799FF70BD2046D8
:100BC000FFF795FF0020E06370BD030606D50B0616
:100BD00004D52046BDE8704000F06CBC4006F3D55B
:100BE0004806F1D5D168204621F04001D16020218E
:100BF00084F8391000F0FBF870BD00008112000885
:100C000070B5040004D094F83900002510B106E056
:100C1000012070BD84F83850204600F023F82420CD
:100C200084F839002068C16821F40051C160204671
:100C300000F088FB2068016921F49041016120687F
:100C4000416921F02A0141612068C16841F40051E5
:100C5000C160E563202084F8390084F83A00002060
:100C600070BD000010B50068154986B0884224D1D7
:100C70001448C16941F40031C161C069124C00F4EB
:100C80000030049004200090022001900320039083
:100C900069462046FFF7D2FA00210820CDE900017D
:100CA000029169462046FFF7C9FA00221146262024
:100CB000FFF73EFC2620FFF72FFC06B010BD00001A
:100CC00000440040001002400008014090F83A3013
:100CD000202B22D1F9B1F2B190F83830012B1CD081
:100CE00081628285C2850021C163222280F83A2078
:100CF00080F838100168CA6842F48072CA600168DE
:100D00004A6942F001024A610068C16841F020016D
:100D1000C16000207047012070470220704700002A
:100D2000034900680968884201D100F035BA70476C
:100D30001C0200202DE9F843044690F839001F46B4
:100D400016460D46202850D1A5B19EB194F8380022
:100D500001284AD0012084F838004FF00008C4F878
:100D60003C80212084F83900FFF750FBA68481469F
:100D7000E68426E00120BDE8F883E08C401EE08494
:100D8000A0684B46B0F5805F4FF000024FF0800145
:100D90002046009703D000F0BEFBE8B90DE000F05C
:100DA000BAFBC8B928882168C0F3080048602069E8
:100DB00008B16D1C05E0AD1C03E0216815F8010BBE
:100DC0004860E08C0028D8D14B46002240212046C4
:100DD000009700F0A0FB08B10320CCE7202084F8A6
:100DE000390084F838800020C5E70220C3E7704747
:100DF000FEE7FEE770470907090E002806DA00F053
:100E00000F0000F1E02080F8141D704700F1E02091
:100E100080F8001470477047704700002DE9FC47C8
:100E200001221D491D48FFF751FF062401254FF4FB
:100E3000FA661BA3324621461BA0CDE9004500F00F
:100E40005FF917A33246042119A0CDE9004500F04F
:100E500057F94FF40059DFF860A00B274FF4FA78E8
:100E600006E049465046FFF7C7FA6420FFF7D4F979
:100E7000CDE9007511A342460A2114A000F040F903
:100E80000128EED106A332460B2113A0CDE900457F
:100E900000F036F9BDE8FC87000000201C020020AD
:100EA0000D0A4F4B0D0A0000415445300D0A000059
:100EB00041540D0A00000000001001402B4350492E
:100EC0004E3A2052454144590000000041542B4302
:100ED00050494E3F0D0A000041542B434D47463DBB
:100EE000310D0A0010B590B004461A208DF83C0070
:100EF0000AA1684600F04AFB684600F03FF9C820A6
:100F0000FFF78AF9204600F039F9642301220FA97E
:100F10000648FFF70FFF10B010BD000041542B43EF
:100F20004D47533D222573220D0A00001C0200206C
:100F300030B585B00024FFF769FA274D6968401A7B
:100F400032280BD96888042808D9C3B2234A06215D
:100F500023A000F074FCC0B2012802D0002005B02C
:100F600030BD032304AA01210D208DE80F00A978CC
:100F700001232C22194800F027FC9DF8110030B302
:100F80009DF812209DF81010C2B171B1303901EBFB
:100F9000C10303EB011102EB810100EB80004FF66E
:100FA000F05202EB4000084484B2002068804FF405
:100FB00000710A48FFF7BDF82046D0E7303901EB51
:100FC00081016FF02F0202EB41010844ECE79DF82C
:100FD00010003038E8E70000000000201C0000206E
:100FE0002B434D54493A00002DE9F04F89B03F4E54
:100FF0008A4604460027DDF848B098469146778037
:101000004FF400713A48FFF794F83A4B04AD0FCB18
:1010100085E80F0000210A200D250A2C08D2303463
:101020008DF818408DF819508DF81A000B2135E015
:10103000A4F10A025A2A11D2B4FBF0F130318DF832
:101040001810B4FBF0F100FB114130318DF819108C
:101050008DF81A508DF81B000C211FE0A4F16402DA
:10106000B2F5617F1AD26422B4FBF2F130318DF80F
:101070001810B4FBF2F102FB1141B1FBF0F1303179
:101080008DF81910B4FBF0F100FB114130318DF8EF
:101090001A108DF81B508DF81C000D210620CDE98B
:1010A000000715A34FF4FA6204A800F029F80128FC
:1010B00019D10BF0FF00CDE9028007232222CDE9F0
:1010C0000023B17801230A4800F07EFB09F0FF00FD
:1010D0000122CDE902A0CDE90052B17802230D2210
:1010E000034800F071FB09B0BDE8F08F000000205C
:1010F0001C0000207C1800082B434D47523A00008A
:101100002DE9F05F9A46DDE90A8917468346FFF725
:101110007DF90646174CA8F1010517E0FFF776F9AF
:101120006168401A32280BD96088A84208DDC3B232
:10113000114A4146504600F082FBC0B201280DD052
:10114000584600F01BF8C820FFF766F8FFF75EF975
:10115000801BB842E2D30020BDE8F09FB9F1000F38
:1011600006D0002060804FF400710348FEF7E1FFD5
:101170000120F1E7000000201C00002010B504460B
:10118000FEF7E2FF214682B2BDE810406423014829
:10119000FFF7D0BD1C02002010B5FFF737F9094951
:1011A00048604888B0F5FF7F01D8401C4880064A57
:1011B00080B209781154BDE810400122014903486A
:1011C000FFF784BD000000201C0000201C0200204E
:1011D00010B5FFF721F9BDE81040FFF784BC10B54A
:1011E00090B002200090012004901020002405906F
:1011F00007946846FFF7D4FA00B1FEE70F20CDE967
:101200000A040C940D9400210AA80E94FFF7C2F969
:1012100000B1FEE7FFF768FA4FF47A71B0FBF1F026
:10122000FFF74DFC0420FFF73DFC00221146501E45
:10123000FFF77EF910B010BD0D48016841F00101C3
:10124000016041680B4A1140416001680A4A11403F
:101250000160016821F480210160416821F4FE01F0
:1012600041604FF41F0181600449C003086070476A
:10127000001002400000FFF8FFFFF6FE08ED00E05E
:1012800010B5406A0021C185C184FFF730FC10BD54
:101290000168CA6822F49072CA6001684A6922F043
:1012A00001024A61202180F83A10704710B590F889
:1012B0003A10222901D0022010BD8168B1F5805F6B
:1012C00011D00169002901681FD0496801F07F032E
:1012D000816A4A1C82620B70C18D491E0904090C87
:1012E000C18518D02BE00269816A002A0268526821
:1012F00005D0D2B20A80816A491C8162ECE7C2F350
:1013000008020A80816A891CF7E74A68816A4B1CD7
:1013100083620A70E0E70168CA6822F02002CA60AE
:101320000168CA6822F48072CA6001684A6922F0C2
:1013300001024A61202180F83A10FFF7F1FC0020F9
:1013400010BD00002DE9F041044600680169E26823
:1013500021F44051114301612169A068084361698A
:1013600008432168CA6841F20C639A430243CA6089
:1013700020684169A26921F44071114341614C49DF
:1013800020686425322688423CD1FFF7C3F900EB80
:10139000C00101EB001061688900B0FBF1F7FFF7B5
:1013A000B9F900EBC00101EB00106168B04689009B
:1013B000B0FBF1F0B0FBF5F06FF01801484307EB1C
:1013C000800106EB0110B0FBF5F000F0F006FFF72E
:1013D000A1F900EBC00101EB001061688900B0FBCE
:1013E000F1F0B0FBF5F006EB0016FFF793F900EB18
:1013F000C00101EB001061688900B0FBF1F7FFF755
:1014000089F93BE0FFF776F900EBC00101EB001032
:1014100061688900B0FBF1F7FFF76CF900EBC001E0
:1014200001EB00106168B0468900B0FBF1F0B0FB41
:10143000F5F06FF01801484307EB800106EB01104F
:10144000B0FBF5F000F0F006FFF754F900EBC00137
:1014500001EB001061688900B0FBF1F0B0FBF5F022
:1014600006EB0016FFF746F900EBC00101EB001098
:1014700061688900B0FBF1F7FFF73CF900EBC001B0
:1014800001EB001061688900B0FBF1F0B0FBF5F0F2
:101490006FF01801484307EB800108EB0110B0FB27
:1014A000F5F0216800F00F0030448860BDE8F0815D
:1014B0000038014090F83910212901D002207047EE
:1014C0008168B1F5805F016A0BD04A1C0262026834
:1014D00009785160C18C491E0904090CC1840ED0E1
:1014E00017E009880268C1F3080151600169002909
:1014F000016A02D0491C0162ECE7891CFBE7016824
:10150000CA6822F08002CA600068C16841F04001E8
:10151000C160002070472DE9F041984617460E46FD
:101520000446069D1DE0681C1BD02DB1FEF76EFF22
:10153000A0EB0800A84214D92068C16821F4D0713A
:10154000C1602068416921F001014161202084F8D7
:10155000390084F83A00002084F838000320BDE800
:10156000F0812068006836EA000004D00020B8420C
:10157000D9D00020F3E70120F9E700000148FFF788
:10158000B7BA00001C020020FEE700000FB4084BB1
:1015900010B504A902AA039800F01BF8044602A99A
:1015A000002000F081F8204610BC5DF814FB00001C
:1015B000A916000802E008C8121F08C1002AFAD1C3
:1015C00070477047002001E001C1121F002AFBD1C3
:1015D00070472DE9F84F9946924688460546002700
:1015E00006E025280AD051464A4690476D1C7F1CCC
:1015F00028780028F5D13846BDE8F88F002315F883
:10160000011F18462E2915D115F8011F04232A2978
:101610000DD06FF02F022978A1F13004092C09D8E0
:1016200000EB800002EB400008446D1CF3E758F823
:10163000040B6D1C2A78002ADDD0632A07D0732A98
:101640000FD0104651464A4690477F1C2AE018F8B2
:10165000042B8DF8002000218DF801106E46012129
:1016600003E058F8046B4FF0FF315A074FF00004C5
:1016700001D409E0641C84420BDA8C42FADB325D4F
:10168000002AF7D105E0641C8C42FCDB305D0028A9
:10169000F9D1274404E016F8010B51464A46904719
:1016A000641EF8D26D1CA3E70A68531C0B6010700F
:1016B0007047000086B0FEF7B7FEFFF790FD304898
:1016C000816941F004018161816901F004010491A3
:1016D000816941F00801816180692A4C00F00800AD
:1016E0000490012202212046FEF78AFE02200121F9
:1016F000CDE90210CDE9000169462046FEF79EFDC6
:1017000022492148002208604FF4E130C1E901027A
:101710000C20CA60C1E904208A610846CA61FFF74B
:101720006FFA00B1FEE7002202212046FEF768FEB4
:10173000C820FEF771FD012202212046FEF760FE5F
:1017400041F27070FEF768FDFFF768FB6420FEF75A
:1017500063FD0C230EA2212111A0FFF7C3FB194C3E
:101760006425207838B1094BA022E033A3F1A00111
:101770000095FFF739FCFFF7DBFB2070F1E7000075
:101780000010024000080140004400401C020020FC
:101790002B383439383137363238323600000000D1
:1017A00044617461204C6F6767657220696E69746B
:1017B00020646F6E6520284F626974207465616DC6
:1017C00029000000080000202DE9FF5F88464FF047
:1017D0000009DDE910B107464C464E464D465846D5
:1017E000DDF838A0FEF7A5FC25E0395D02988142BE
:1017F0001CD1761C0398F6B286421AD111990120A9
:10180000491C10E02218BA5C524507D16D1C0F9B91
:10181000EDB29D4202D14FF001090AE00BEB00034B
:10182000401C03F8012C8842ECDB02E0B9F1010F07
:1018300003D0641CE4B24445D7D3BDE8FF9FF0B5A4
:101840000024264612E00578175DBD4214D100251C
:1018500009E02F19465DD75DBE4202D00126641C07
:1018600004E000266D1C8D42F3DB1EB19C42EADBD6
:101870000020F0BD0120F0BD0026F0E741542B43CD
:101880004D47523D00000000000000000000000035
:10189000000102030406070809000000000102031A
:1018A00004000000C4180008000000201C00000014
:1018B000B4150008E01800081C00002044070000D0
:1018C000C415000800000000000000000000000037
:1018D00001000000100000000000000000A24A0407
:04000005080000ED02
:00000001FF
